{
  "_format": "hh-sol-artifact-1",
  "contractName": "crowdtank",
  "sourceName": "contracts/crowdtank.sol",
  "abi": [
    {
      "inputs": [],
      "stateMutability": "nonpayable",
      "type": "constructor"
    },
    {
      "anonymous": false,
      "inputs": [
        {
          "indexed": true,
          "internalType": "uint256",
          "name": "ProjectId",
          "type": "uint256"
        },
        {
          "indexed": true,
          "internalType": "address",
          "name": "creator",
          "type": "address"
        },
        {
          "indexed": false,
          "internalType": "string",
          "name": "name",
          "type": "string"
        },
        {
          "indexed": false,
          "internalType": "string",
          "name": "description",
          "type": "string"
        },
        {
          "indexed": false,
          "internalType": "uint256",
          "name": "FundingGoal",
          "type": "uint256"
        },
        {
          "indexed": false,
          "internalType": "uint256",
          "name": "deadline",
          "type": "uint256"
        }
      ],
      "name": "ProjectCreated",
      "type": "event"
    },
    {
      "anonymous": false,
      "inputs": [
        {
          "indexed": true,
          "internalType": "uint256",
          "name": "ProjectId",
          "type": "uint256"
        },
        {
          "indexed": true,
          "internalType": "address",
          "name": "contributor",
          "type": "address"
        },
        {
          "indexed": false,
          "internalType": "uint256",
          "name": "amount",
          "type": "uint256"
        }
      ],
      "name": "ProjectFunded",
      "type": "event"
    },
    {
      "anonymous": false,
      "inputs": [
        {
          "indexed": true,
          "internalType": "uint256",
          "name": "ProjectId",
          "type": "uint256"
        },
        {
          "indexed": true,
          "internalType": "address",
          "name": "withdrawer",
          "type": "address"
        },
        {
          "indexed": false,
          "internalType": "uint256",
          "name": "amount",
          "type": "uint256"
        },
        {
          "indexed": false,
          "internalType": "string",
          "name": "withdrawertype",
          "type": "string"
        }
      ],
      "name": "Withdrawal",
      "type": "event"
    },
    {
      "inputs": [],
      "name": "AdminCollectCommission",
      "outputs": [],
      "stateMutability": "payable",
      "type": "function"
    },
    {
      "inputs": [
        {
          "internalType": "uint256",
          "name": "",
          "type": "uint256"
        },
        {
          "internalType": "address",
          "name": "",
          "type": "address"
        }
      ],
      "name": "Contributor",
      "outputs": [
        {
          "internalType": "uint256",
          "name": "",
          "type": "uint256"
        }
      ],
      "stateMutability": "view",
      "type": "function"
    },
    {
      "inputs": [
        {
          "internalType": "uint256",
          "name": "ProjectId",
          "type": "uint256"
        }
      ],
      "name": "ContributorWithDrawFund",
      "outputs": [],
      "stateMutability": "payable",
      "type": "function"
    },
    {
      "inputs": [
        {
          "internalType": "uint256",
          "name": "",
          "type": "uint256"
        },
        {
          "internalType": "address",
          "name": "",
          "type": "address"
        }
      ],
      "name": "ContributorsContribution",
      "outputs": [
        {
          "internalType": "uint256",
          "name": "",
          "type": "uint256"
        }
      ],
      "stateMutability": "view",
      "type": "function"
    },
    {
      "inputs": [
        {
          "internalType": "string",
          "name": "_name",
          "type": "string"
        },
        {
          "internalType": "string",
          "name": "_description",
          "type": "string"
        },
        {
          "internalType": "uint256",
          "name": "_fundinggoal",
          "type": "uint256"
        },
        {
          "internalType": "uint256",
          "name": "_durationSeconds",
          "type": "uint256"
        },
        {
          "internalType": "uint256",
          "name": "_id",
          "type": "uint256"
        }
      ],
      "name": "CreateProject",
      "outputs": [],
      "stateMutability": "nonpayable",
      "type": "function"
    },
    {
      "inputs": [
        {
          "internalType": "uint256",
          "name": "ProjectId",
          "type": "uint256"
        }
      ],
      "name": "CreatorWithDrawFunds",
      "outputs": [],
      "stateMutability": "payable",
      "type": "function"
    },
    {
      "inputs": [
        {
          "internalType": "uint256",
          "name": "projectId",
          "type": "uint256"
        }
      ],
      "name": "HowMuchFundsRequired",
      "outputs": [
        {
          "internalType": "uint256",
          "name": "",
          "type": "uint256"
        }
      ],
      "stateMutability": "view",
      "type": "function"
    },
    {
      "inputs": [
        {
          "internalType": "uint256",
          "name": "projectId",
          "type": "uint256"
        }
      ],
      "name": "ViewTotalCommission",
      "outputs": [
        {
          "internalType": "uint256",
          "name": "",
          "type": "uint256"
        }
      ],
      "stateMutability": "view",
      "type": "function"
    },
    {
      "inputs": [],
      "name": "admin",
      "outputs": [
        {
          "internalType": "address",
          "name": "",
          "type": "address"
        }
      ],
      "stateMutability": "view",
      "type": "function"
    },
    {
      "inputs": [
        {
          "internalType": "uint256",
          "name": "projectId",
          "type": "uint256"
        }
      ],
      "name": "fundProject",
      "outputs": [],
      "stateMutability": "payable",
      "type": "function"
    },
    {
      "inputs": [
        {
          "internalType": "uint256",
          "name": "",
          "type": "uint256"
        }
      ],
      "name": "isIDUsed",
      "outputs": [
        {
          "internalType": "bool",
          "name": "",
          "type": "bool"
        }
      ],
      "stateMutability": "view",
      "type": "function"
    },
    {
      "inputs": [
        {
          "internalType": "uint256",
          "name": "",
          "type": "uint256"
        }
      ],
      "name": "project",
      "outputs": [
        {
          "internalType": "address",
          "name": "creator",
          "type": "address"
        },
        {
          "internalType": "string",
          "name": "name",
          "type": "string"
        },
        {
          "internalType": "string",
          "name": "description",
          "type": "string"
        },
        {
          "internalType": "uint256",
          "name": "FundingGoal",
          "type": "uint256"
        },
        {
          "internalType": "uint256",
          "name": "deadline",
          "type": "uint256"
        },
        {
          "internalType": "uint256",
          "name": "amountraised",
          "type": "uint256"
        },
        {
          "internalType": "bool",
          "name": "projectfunded",
          "type": "bool"
        },
        {
          "internalType": "uint256",
          "name": "Commission",
          "type": "uint256"
        }
      ],
      "stateMutability": "view",
      "type": "function"
    }
  ],
  "bytecode": "0x6080604052600060015534801561001557600080fd5b50336000806101000a81548173ffffffffffffffffffffffffffffffffffffffff021916908373ffffffffffffffffffffffffffffffffffffffff160217905550611c0c806100656000396000f3fe6080604052600436106100a75760003560e01c806373f1e6aa1161006457806373f1e6aa146101cb5780637c55749e146101e7578063d3ac01bd14610224578063e25a223c14610261578063ec37a72d1461026b578063f851a440146102a8576100a7565b806311d5aaa7146100ac578063377e8d87146100f05780633b11b30e1461012d5780633e059dba146101495780636c563abe1461018657806370e45845146101a2575b600080fd5b3480156100b857600080fd5b506100d360048036038101906100ce919061117a565b6102d3565b6040516100e79897969594939291906115f8565b60405180910390f35b3480156100fc57600080fd5b506101176004803603810190610112919061117a565b610458565b6040516101249190611872565b60405180910390f35b6101476004803603810190610142919061117a565b6104dd565b005b34801561015557600080fd5b50610170600480360381019061016b919061117a565b610673565b60405161017d9190611872565b60405180910390f35b6101a0600480360381019061019b919061117a565b61067f565b005b3480156101ae57600080fd5b506101c960048036038101906101c491906110d3565b6109ef565b005b6101e560048036038101906101e0919061117a565b610c22565b005b3480156101f357600080fd5b5061020e600480360381019061020991906111a3565b610dca565b60405161021b9190611872565b60405180910390f35b34801561023057600080fd5b5061024b600480360381019061024691906111a3565b610def565b6040516102589190611872565b60405180910390f35b610269610e14565b005b34801561027757600080fd5b50610292600480360381019061028d919061117a565b610f5a565b60405161029f9190611684565b60405180910390f35b3480156102b457600080fd5b506102bd610f7a565b6040516102ca91906115dd565b60405180910390f35b60026020528060005260406000206000915090508060000160009054906101000a900473ffffffffffffffffffffffffffffffffffffffff169080600101805461031c90611aa9565b80601f016020809104026020016040519081016040528092919081815260200182805461034890611aa9565b80156103955780601f1061036a57610100808354040283529160200191610395565b820191906000526020600020905b81548152906001019060200180831161037857829003601f168201915b5050505050908060020180546103aa90611aa9565b80601f01602080910402602001604051908101604052809291908181526020018280546103d690611aa9565b80156104235780601f106103f857610100808354040283529160200191610423565b820191906000526020600020905b81548152906001019060200180831161040657829003601f168201915b5050505050908060030154908060040154908060050154908060060160009054906101000a900460ff16908060070154905088565b6000806002600084815260200190815260200160002090508060030154816005015411156104bb576040517f08c379a00000000000000000000000000000000000000000000000000000000081526004016104b290611712565b60405180910390fd5b6000816005015482600301546104d191906119eb565b90508092505050919050565b60006002600083815260200190815260200160002090506000816005015490508160060160009054906101000a900460ff1661054e576040517f08c379a000000000000000000000000000000000000000000000000000000000815260040161054590611852565b60405180910390fd5b3373ffffffffffffffffffffffffffffffffffffffff168260000160009054906101000a900473ffffffffffffffffffffffffffffffffffffffff1673ffffffffffffffffffffffffffffffffffffffff16146105e0576040517f08c379a00000000000000000000000000000000000000000000000000000000081526004016105d790611732565b60405180910390fd5b8160040154421015610627576040517f08c379a000000000000000000000000000000000000000000000000000000000815260040161061e906117d2565b60405180910390fd5b3373ffffffffffffffffffffffffffffffffffffffff166108fc829081150290604051600060405180830381858888f1935050505015801561066d573d6000803e3d6000fd5b50505050565b60006001549050919050565b6000600260008381526020019081526020016000209050600034116106d9576040517f08c379a00000000000000000000000000000000000000000000000000000000081526004016106d0906117b2565b60405180910390fd5b4281600401541161071f576040517f08c379a000000000000000000000000000000000000000000000000000000000815260040161071690611772565b60405180910390fd5b600060649050806003600085815260200190815260200160002060003373ffffffffffffffffffffffffffffffffffffffff1673ffffffffffffffffffffffffffffffffffffffff1681526020019081526020016000205460056107839190611991565b61078d9190611960565b8260070160008282546107a0919061190a565b925050819055508160070154600160008282546107bd919061190a565b925050819055506000816003600086815260200190815260200160002060003373ffffffffffffffffffffffffffffffffffffffff1673ffffffffffffffffffffffffffffffffffffffff16815260200190815260200160002054605f6108249190611991565b61082e9190611960565b905080836005016000828254610844919061190a565b925050819055508260030154836005015410156108c7578260000160009054906101000a900473ffffffffffffffffffffffffffffffffffffffff1673ffffffffffffffffffffffffffffffffffffffff166108fc829081150290604051600060405180830381858888f193505050501580156108c5573d6000803e3d6000fd5b505b82600301548360050154106108f45760018360060160006101000a81548160ff0219169083151502179055505b600115158360060160009054906101000a900460ff16151514156109e95760008360030154846005015461092891906119eb565b90508360000160009054906101000a900473ffffffffffffffffffffffffffffffffffffffff1673ffffffffffffffffffffffffffffffffffffffff166108fc828461097491906119eb565b9081150290604051600060405180830381858888f1935050505015801561099f573d6000803e3d6000fd5b503373ffffffffffffffffffffffffffffffffffffffff166108fc829081150290604051600060405180830381858888f193505050501580156109e6573d6000803e3d6000fd5b50505b50505050565b6005600082815260200190815260200160002060009054906101000a900460ff1615610a50576040517f08c379a0000000000000000000000000000000000000000000000000000000008152600401610a47906116f2565b60405180910390fd5b60016005600083815260200190815260200160002060006101000a81548160ff0219169083151502179055506040518061010001604052803373ffffffffffffffffffffffffffffffffffffffff1681526020018681526020018581526020018481526020018342610ac2919061190a565b81526020016000815260200160001515815260200160008152506002600083815260200190815260200160002060008201518160000160006101000a81548173ffffffffffffffffffffffffffffffffffffffff021916908373ffffffffffffffffffffffffffffffffffffffff1602179055506020820151816001019080519060200190610b52929190610f9e565b506040820151816002019080519060200190610b6f929190610f9e565b50606082015181600301556080820151816004015560a0820151816005015560c08201518160060160006101000a81548160ff02191690831515021790555060e082015181600701559050503373ffffffffffffffffffffffffffffffffffffffff16817fac9b83534845c9e785a6ea70f2d809db1d72ef9a1d981753712d922f5cb55f398787878742610c03919061190a565b604051610c13949392919061169f565b60405180910390a35050505050565b6000600260008381526020019081526020016000209050806003015481600501541115610c84576040517f08c379a0000000000000000000000000000000000000000000000000000000008152600401610c7b90611812565b60405180910390fd5b8060040154421115610ccb576040517f08c379a0000000000000000000000000000000000000000000000000000000008152600401610cc2906117f2565b60405180910390fd5b60006004600084815260200190815260200160002060003373ffffffffffffffffffffffffffffffffffffffff1673ffffffffffffffffffffffffffffffffffffffff16815260200190815260200160002054905060008111610d63576040517f08c379a0000000000000000000000000000000000000000000000000000000008152600401610d5a90611792565b60405180910390fd5b80826005016000828254610d7791906119eb565b925050819055503373ffffffffffffffffffffffffffffffffffffffff166108fc829081150290604051600060405180830381858888f19350505050158015610dc4573d6000803e3d6000fd5b50505050565b6003602052816000526040600020602052806000526040600020600091509150505481565b6004602052816000526040600020602052806000526040600020600091509150505481565b60008054906101000a900473ffffffffffffffffffffffffffffffffffffffff1673ffffffffffffffffffffffffffffffffffffffff163373ffffffffffffffffffffffffffffffffffffffff1614610ea2576040517f08c379a0000000000000000000000000000000000000000000000000000000008152600401610e9990611832565b60405180910390fd5b600060015411610ee7576040517f08c379a0000000000000000000000000000000000000000000000000000000008152600401610ede90611752565b60405180910390fd5b60008054906101000a900473ffffffffffffffffffffffffffffffffffffffff1673ffffffffffffffffffffffffffffffffffffffff166108fc6001549081150290604051600060405180830381858888f19350505050158015610f4f573d6000803e3d6000fd5b506000600181905550565b60056020528060005260406000206000915054906101000a900460ff1681565b60008054906101000a900473ffffffffffffffffffffffffffffffffffffffff1681565b828054610faa90611aa9565b90600052602060002090601f016020900481019282610fcc5760008555611013565b82601f10610fe557805160ff1916838001178555611013565b82800160010185558215611013579182015b82811115611012578251825591602001919060010190610ff7565b5b5090506110209190611024565b5090565b5b8082111561103d576000816000905550600101611025565b5090565b600061105461104f846118be565b61188d565b90508281526020810184848401111561106c57600080fd5b611077848285611a67565b509392505050565b60008135905061108e81611ba8565b92915050565b600082601f8301126110a557600080fd5b81356110b5848260208601611041565b91505092915050565b6000813590506110cd81611bbf565b92915050565b600080600080600060a086880312156110eb57600080fd5b600086013567ffffffffffffffff81111561110557600080fd5b61111188828901611094565b955050602086013567ffffffffffffffff81111561112e57600080fd5b61113a88828901611094565b945050604061114b888289016110be565b935050606061115c888289016110be565b925050608061116d888289016110be565b9150509295509295909350565b60006020828403121561118c57600080fd5b600061119a848285016110be565b91505092915050565b600080604083850312156111b657600080fd5b60006111c4858286016110be565b92505060206111d58582860161107f565b9150509250929050565b6111e881611a1f565b82525050565b6111f781611a31565b82525050565b6000611208826118ee565b61121281856118f9565b9350611222818560208601611a76565b61122b81611b97565b840191505092915050565b6000611243601a836118f9565b91507f50726f6a65637420496420697320616c726561647920757365640000000000006000830152602082019050919050565b60006112836001836118f9565b91507f30000000000000000000000000000000000000000000000000000000000000006000830152602082019050919050565b60006112c3601f836118f9565b91507f4f6e6c792043726561746f722063616e207769746864726177206d6f6e6579006000830152602082019050919050565b60006113036021836118f9565b91507f4e6f20636f6d6d697373696f6e20636f6c6c65637465642074696c6c206e6f7760008301527f2e000000000000000000000000000000000000000000000000000000000000006020830152604082019050919050565b6000611369601b836118f9565b91507f50726f6a65637420646561646c696e65206861732070617373656400000000006000830152602082019050919050565b60006113a9601d836118f9565b91507f4d7573742073656e6420736f6d652076616c7565206f662045746865720000006000830152602082019050919050565b60006113e9601d836118f9565b91507f4d7573742073656e6420736f6d652076616c7565206f662065746865720000006000830152602082019050919050565b60006114296018836118f9565b91507f446561646c696e65206e6f7420796574207265616368656400000000000000006000830152602082019050919050565b60006114696023836118f9565b91507f446561646c696e6520697320726561636865642c2063616e277420776974686460008301527f72617700000000000000000000000000000000000000000000000000000000006020830152604082019050919050565b60006114cf6029836118f9565b91507f46756c6c2066756e64696e6720726561636865642c20557365722063616e277460008301527f20776974686472617700000000000000000000000000000000000000000000006020830152604082019050919050565b60006115356022836118f9565b91507f4f6e6c792061646d696e2063616e20706572666f726d2074686973206163746960008301527f6f6e0000000000000000000000000000000000000000000000000000000000006020830152604082019050919050565b600061159b6018836118f9565b91507f50726f6a656374204e6f742066756e6465642066756c6c7900000000000000006000830152602082019050919050565b6115d781611a5d565b82525050565b60006020820190506115f260008301846111df565b92915050565b60006101008201905061160e600083018b6111df565b8181036020830152611620818a6111fd565b9050818103604083015261163481896111fd565b905061164360608301886115ce565b61165060808301876115ce565b61165d60a08301866115ce565b61166a60c08301856111ee565b61167760e08301846115ce565b9998505050505050505050565b600060208201905061169960008301846111ee565b92915050565b600060808201905081810360008301526116b981876111fd565b905081810360208301526116cd81866111fd565b90506116dc60408301856115ce565b6116e960608301846115ce565b95945050505050565b6000602082019050818103600083015261170b81611236565b9050919050565b6000602082019050818103600083015261172b81611276565b9050919050565b6000602082019050818103600083015261174b816112b6565b9050919050565b6000602082019050818103600083015261176b816112f6565b9050919050565b6000602082019050818103600083015261178b8161135c565b9050919050565b600060208201905081810360008301526117ab8161139c565b9050919050565b600060208201905081810360008301526117cb816113dc565b9050919050565b600060208201905081810360008301526117eb8161141c565b9050919050565b6000602082019050818103600083015261180b8161145c565b9050919050565b6000602082019050818103600083015261182b816114c2565b9050919050565b6000602082019050818103600083015261184b81611528565b9050919050565b6000602082019050818103600083015261186b8161158e565b9050919050565b600060208201905061188760008301846115ce565b92915050565b6000604051905081810181811067ffffffffffffffff821117156118b4576118b3611b68565b5b8060405250919050565b600067ffffffffffffffff8211156118d9576118d8611b68565b5b601f19601f8301169050602081019050919050565b600081519050919050565b600082825260208201905092915050565b600061191582611a5d565b915061192083611a5d565b9250827fffffffffffffffffffffffffffffffffffffffffffffffffffffffffffffffff0382111561195557611954611adb565b5b828201905092915050565b600061196b82611a5d565b915061197683611a5d565b92508261198657611985611b0a565b5b828204905092915050565b600061199c82611a5d565b91506119a783611a5d565b9250817fffffffffffffffffffffffffffffffffffffffffffffffffffffffffffffffff04831182151516156119e0576119df611adb565b5b828202905092915050565b60006119f682611a5d565b9150611a0183611a5d565b925082821015611a1457611a13611adb565b5b828203905092915050565b6000611a2a82611a3d565b9050919050565b60008115159050919050565b600073ffffffffffffffffffffffffffffffffffffffff82169050919050565b6000819050919050565b82818337600083830152505050565b60005b83811015611a94578082015181840152602081019050611a79565b83811115611aa3576000848401525b50505050565b60006002820490506001821680611ac157607f821691505b60208210811415611ad557611ad4611b39565b5b50919050565b7f4e487b7100000000000000000000000000000000000000000000000000000000600052601160045260246000fd5b7f4e487b7100000000000000000000000000000000000000000000000000000000600052601260045260246000fd5b7f4e487b7100000000000000000000000000000000000000000000000000000000600052602260045260246000fd5b7f4e487b7100000000000000000000000000000000000000000000000000000000600052604160045260246000fd5b6000601f19601f8301169050919050565b611bb181611a1f565b8114611bbc57600080fd5b50565b611bc881611a5d565b8114611bd357600080fd5b5056fea264697066735822122014d82067fbd55a8e0d1c7503f1b001225d81b34eebf787ac8659269705afddb364736f6c63430008000033",
  "linkReferences": {},
  "deployedLinkReferences": {}
}